{
  "_format": "hh3-artifact-1",
  "contractName": "VerifiTrust",
  "sourceName": "contracts/VerifiTrust.sol",
  "abi": [
    {
      "inputs": [],
      "stateMutability": "nonpayable",
      "type": "constructor"
    },
    {
      "anonymous": false,
      "inputs": [
        {
          "indexed": true,
          "internalType": "uint256",
          "name": "taskId",
          "type": "uint256"
        },
        {
          "indexed": true,
          "internalType": "address",
          "name": "validator",
          "type": "address"
        },
        {
          "indexed": false,
          "internalType": "bool",
          "name": "outcome",
          "type": "bool"
        },
        {
          "indexed": false,
          "internalType": "string",
          "name": "evidenceHash",
          "type": "string"
        }
      ],
      "name": "ProofSubmitted",
      "type": "event"
    },
    {
      "anonymous": false,
      "inputs": [
        {
          "indexed": true,
          "internalType": "address",
          "name": "validator",
          "type": "address"
        },
        {
          "indexed": false,
          "internalType": "uint256",
          "name": "newScore",
          "type": "uint256"
        }
      ],
      "name": "ReputationIncreased",
      "type": "event"
    },
    {
      "anonymous": false,
      "inputs": [
        {
          "indexed": true,
          "internalType": "address",
          "name": "validator",
          "type": "address"
        }
      ],
      "name": "ValidatorRegistered",
      "type": "event"
    },
    {
      "inputs": [
        {
          "internalType": "uint256",
          "name": "_taskId",
          "type": "uint256"
        }
      ],
      "name": "getValidations",
      "outputs": [
        {
          "components": [
            {
              "internalType": "uint256",
              "name": "taskId",
              "type": "uint256"
            },
            {
              "internalType": "string",
              "name": "evidenceHash",
              "type": "string"
            },
            {
              "internalType": "bool",
              "name": "outcome",
              "type": "bool"
            },
            {
              "internalType": "uint256",
              "name": "timestamp",
              "type": "uint256"
            }
          ],
          "internalType": "struct VerifiTrust.Verification[]",
          "name": "",
          "type": "tuple[]"
        }
      ],
      "stateMutability": "view",
      "type": "function"
    },
    {
      "inputs": [],
      "name": "registerValidator",
      "outputs": [],
      "stateMutability": "nonpayable",
      "type": "function"
    },
    {
      "inputs": [
        {
          "internalType": "uint256",
          "name": "_taskId",
          "type": "uint256"
        },
        {
          "internalType": "string",
          "name": "_evidenceHash",
          "type": "string"
        },
        {
          "internalType": "bool",
          "name": "_outcome",
          "type": "bool"
        }
      ],
      "name": "submitProof",
      "outputs": [],
      "stateMutability": "nonpayable",
      "type": "function"
    },
    {
      "inputs": [
        {
          "internalType": "uint256",
          "name": "",
          "type": "uint256"
        },
        {
          "internalType": "uint256",
          "name": "",
          "type": "uint256"
        }
      ],
      "name": "taskValidations",
      "outputs": [
        {
          "internalType": "uint256",
          "name": "taskId",
          "type": "uint256"
        },
        {
          "internalType": "string",
          "name": "evidenceHash",
          "type": "string"
        },
        {
          "internalType": "bool",
          "name": "outcome",
          "type": "bool"
        },
        {
          "internalType": "uint256",
          "name": "timestamp",
          "type": "uint256"
        }
      ],
      "stateMutability": "view",
      "type": "function"
    },
    {
      "inputs": [
        {
          "internalType": "address",
          "name": "",
          "type": "address"
        }
      ],
      "name": "validators",
      "outputs": [
        {
          "internalType": "address",
          "name": "wallet",
          "type": "address"
        },
        {
          "internalType": "uint256",
          "name": "reputation",
          "type": "uint256"
        },
        {
          "internalType": "uint256",
          "name": "totalTasksCompleted",
          "type": "uint256"
        },
        {
          "internalType": "bool",
          "name": "isActive",
          "type": "bool"
        }
      ],
      "stateMutability": "view",
      "type": "function"
    }
  ],
  "bytecode": "0x6080604052348015600e575f5ffd5b506109d78061001c5f395ff3fe608060405234801561000f575f5ffd5b5060043610610055575f3560e01c8063434dbaee14610059578063954732a814610082578063bcc6587f14610097578063d85ce1ff1461009f578063fa52c7d8146100c2575b5f5ffd5b61006c610067366004610617565b61012f565b604051610079919061065c565b60405180910390f35b6100956100903660046106ec565b610254565b005b610095610457565b6100b26100ad36600461077a565b610547565b604051610079949392919061079a565b6101036100d03660046107c5565b5f6020819052908152604090208054600182015460028301546003909301546001600160a01b0390921692909160ff1684565b604080516001600160a01b03909516855260208501939093529183015215156060820152608001610079565b606060015f8381526020019081526020015f20805480602002602001604051908101604052809291908181526020015f905b82821015610249578382905f5260205f2090600402016040518060800160405290815f820154815260200160018201805461019b906107f2565b80601f01602080910402602001604051908101604052809291908181526020018280546101c7906107f2565b80156102125780601f106101e957610100808354040283529160200191610212565b820191905f5260205f20905b8154815290600101906020018083116101f557829003601f168201915b5050509183525050600282015460ff1615156020808301919091526003909201546040909101529082526001929092019101610161565b505050509050919050565b335f9081526020819052604090206003015460ff166102ba5760405162461bcd60e51b815260206004820152601a60248201527f4e6f74206120726567697374657265642076616c696461746f7200000000000060448201526064015b60405180910390fd5b60015f8581526020019081526020015f20604051806080016040528086815260200185858080601f0160208091040260200160405190810160405280939291908181526020018383808284375f9201829052509385525050508415156020808401919091524260409093019290925283546001818101865594825290829020835160049092020190815590820151919290919082019061035a908261088a565b5060408281015160028301805460ff1916911515919091179055606090920151600390910155335f90815260208190529081206001018054600a92906103a1908490610945565b9091555050335f9081526020819052604081206002018054600192906103c8908490610945565b9091555050604051339085907feb766fcf7fd8d7668a7ab05077f4a339253c095aaa20f47b6827204b750f5221906104059085908890889061096a565b60405180910390a3335f81815260208181526040918290206001015491519182527ffac498e7ee7d43e382528bf22afd838a7c6abfa5f54e7c564f7e5a54a18ca34c910160405180910390a250505050565b335f9081526020819052604090206003015460ff16156104ae5760405162461bcd60e51b8152602060048201526012602482015271105b1c9958591e481c9959da5cdd195c995960721b60448201526064016102b1565b60408051608081018252338082525f602080840182815284860183815260016060870181815286865293859052878520965187546001600160a01b0319166001600160a01b03909116178755915191860191909155516002850155516003909301805460ff19169315159390931790925591517fd09501348473474a20c772c79c653e1fd7e8b437e418fe235d277d2c888532519190a2565b6001602052815f5260405f208181548110610560575f80fd5b905f5260205f2090600402015f9150915050805f015490806001018054610586906107f2565b80601f01602080910402602001604051908101604052809291908181526020018280546105b2906107f2565b80156105fd5780601f106105d4576101008083540402835291602001916105fd565b820191905f5260205f20905b8154815290600101906020018083116105e057829003601f168201915b505050506002830154600390930154919260ff1691905084565b5f60208284031215610627575f5ffd5b5035919050565b5f81518084528060208401602086015e5f602082860101526020601f19601f83011685010191505092915050565b5f602082016020835280845180835260408501915060408160051b8601019250602086015f5b828110156106e057603f198786030184528151805186526020810151608060208801526106b2608088018261062e565b6040838101511515908901526060928301519290970191909152506020938401939190910190600101610682565b50929695505050505050565b5f5f5f5f606085870312156106ff575f5ffd5b84359350602085013567ffffffffffffffff81111561071c575f5ffd5b8501601f8101871361072c575f5ffd5b803567ffffffffffffffff811115610742575f5ffd5b876020828401011115610753575f5ffd5b602091909101935091506040850135801515811461076f575f5ffd5b939692955090935050565b5f5f6040838503121561078b575f5ffd5b50508035926020909101359150565b848152608060208201525f6107b2608083018661062e565b9315156040830152506060015292915050565b5f602082840312156107d5575f5ffd5b81356001600160a01b03811681146107eb575f5ffd5b9392505050565b600181811c9082168061080657607f821691505b60208210810361082457634e487b7160e01b5f52602260045260245ffd5b50919050565b634e487b7160e01b5f52604160045260245ffd5b601f82111561088557805f5260205f20601f840160051c810160208510156108635750805b601f840160051c820191505b81811015610882575f815560010161086f565b50505b505050565b815167ffffffffffffffff8111156108a4576108a461082a565b6108b8816108b284546107f2565b8461083e565b6020601f8211600181146108ea575f83156108d35750848201515b5f19600385901b1c1916600184901b178455610882565b5f84815260208120601f198516915b8281101561091957878501518255602094850194600190920191016108f9565b508482101561093657868401515f19600387901b60f8161c191681555b50505050600190811b01905550565b8082018082111561096457634e487b7160e01b5f52601160045260245ffd5b92915050565b831515815260406020820152816040820152818360608301375f818301606090810191909152601f909201601f191601019291505056fea2646970667358221220875abdd68c138fa6687e195a66977992757c9f0bc144fb26d98d1012bc02833064736f6c634300081c0033",
  "linkReferences": {},
  "deployedLinkReferences": {},
  "immutableReferences": {},
  "inputSourceName": "project/contracts/VerifiTrust.sol",
  "buildInfoId": "solc-0_8_28-e737dd9e13e757ce286a8d7f11bb33f5c6220ac0"
}